:020000040800F2
:10000000380600204501000869170008BD050008F2
:10001000651700084B020008771E0008000000006A
:10002000000000000000000000000000FD1A0008B1
:100030004F02000800000000DD170008FF1A00084A
:100040005B0100085B0100085B0100085B01000820
:100050005B0100085B0100085B0100085B01000810
:100060005B0100085B0100085B0100085B01000800
:100070005B0100085B0100085B0100085B010008F0
:100080005B0100085B0100085B0100085B010008E0
:100090005B0100085B0100085B0100085B010008D0
:1000A0005B0100085B0100085B0100085B010008C0
:1000B0005B0100085B0100085B0100085B010008B0
:1000C0005B0100085B0100085B0100085B010008A0
:1000D0005B010008D51B0008591C00085B010008E3
:1000E0005B0100085B0100085B0100085B01000880
:1000F0005B0100085B0100085B0100085B01000870
:100100005B0100085B0100085B0100085B0100085F
:100110005B0100085B0100085B0100085B0100084F
:100120005B0100085B0100085B0100085B0100083F
:10013000DFF80CD000F058F800480047FD23000815
:100140003806002005480047FEE7FEE7FEE7FEE729
:10015000FEE7FEE7FEE7FEE7FEE7FEE73101000807
:10016000D2B201E000F8012B491EFBD270470022F9
:10017000F6E710B513460A4604461946FFF7F0FFA6
:10018000204610BD2DE9F05F0546002092469B46B3
:1001900088460646814640241BE02846414647469D
:1001A000224600F042F853465A46C01A914110D3F5
:1001B00011461846224600F029F82D1A67EB01086F
:1001C0004F4622460120002100F020F817EB0009DD
:1001D0004E41201EA4F10104DFDC484631462A4688
:1001E0004346BDE8F09F0000064C074D06E0E0687E
:1001F00040F0010394E8070098471034AC42F6D36E
:10020000FFF79AFF5C2400087C240008202A04DB06
:10021000203A00FA02F1002070479140C2F1200319
:1002200020FA03F3194390407047202A04DB203A58
:1002300021FA02F00021704721FA02F3D040C2F106
:100240002002914008431946704700BFFEE77047FF
:100250000549096821F01001034A11601146096837
:100260000143116070470000002002400146002059
:10027000034A106800F0380008431060704700001F
:100280000020024000B59FB001214FF4B07001F092
:10029000B7FA4CF20370ADF8780018208DF87B00A7
:1002A00003208DF87A001EA9344800F0FAF84FF6C2
:1002B0008070ADF878001EA9314800F0F2F841F2E4
:1002C0000100ADF878001EA92E4800F0EAF83020B1
:1002D000ADF878001EA9294800F0E3F841F20101C9
:1002E000284800F069F93021244800F065F901211F
:1002F000080201F075FA0F20089009903C200A903E
:1003000000200B9010200C9011200D9000200E90DA
:10031000092001900F2002900820039000200490F3
:1003200010200590112006900020079006200F90C5
:100330000020109011901020129000201390159022
:10034000169017904FF480501890002019904FF499
:1003500080401A90002014901B9001A81C9008A8BF
:100360001D900FA800F02AF80121062000F00CF8DB
:10037000322001F0EBFF1FB000BD0000001401406F
:10038000001801400020014051B18200A2F1C0429A
:10039000126842F001038200A2F1C042136009E03A
:1003A0008200A2F1C0421268034B1A408300A3F1FD
:1003B000C0431A6070470000FEFF0F00D0E9011231
:1003C0001143C268114302691143426911438269B2
:1003D0001143C2691143026A1143426A1143826A9E
:1003E0001143C26A1143026B114302689200A2F1E9
:1003F000C0421160816808290BD101688900A1F110
:10040000C041096841F0400201688900A1F1C04182
:100410000A60416B0968426B526841EA0211426B03
:10042000926841EA0221426B928941EA0241426BA1
:10043000128A41EA0251426B127D41EA0261426B2B
:10044000926911430268521C9200A2F1C0421160ED
:10045000C16AB1F5804F1BD1816B0968826B52680C
:1004600041EA0211826B926841EA0221826B128A90
:1004700041EA0251826B127D41EA0261826B92690C
:10048000114302689200A2F1C042C2F8041107E0D1
:100490006FF0704201688900A1F1C041C1F80421E8
:1004A00070472DE9F0410246002500260020002378
:1004B0000024002791F803C00CF00F0591F803C049
:1004C0000CF0100CBCF1000F03D091F802C04CEA04
:1004D000050591F800C0BCF1000F31D01468002070
:1004E0002BE04FF0010C0CFA00F3B1F800C00CEA5D
:1004F00003069E4220D183004FF00F0C0CFA03F745
:10050000BC4305FA03FC4CEA040491F803C0BCF1B7
:10051000280F06D14FF0010C0CFA00FCC2F814C0F1
:100520000AE091F803C0BCF1480F05D14FF0010C6F
:100530000CFA00FCC2F810C0401C0828D1D314608B
:10054000B1F800C0BCF1FF0F34DD546800202EE08C
:1005500000F1080C4FF0010808FA0CF3B1F800C0E4
:100560000CEA03069E4221D183004FF00F0C0CFAD7
:1005700003F7BC4305FA03FC4CEA040491F803C0FA
:10058000BCF1280F05D100F1080C08FA0CF8C2F8EC
:10059000148091F803C0BCF1480F07D100F1080C9A
:1005A0004FF0010808FA0CF8C2F81080401C082827
:1005B000CED35460BDE8F0810161704700BFFEE713
:1005C00030B504460A4840880949898800FB01F58E
:1005D0000021084601F078F801F0A6F8002203E0B7
:1005E000204601F0ABF8521CAA42F9D330BD0000FE
:1005F000B401002010B504460A4884713CB14FF4A0
:10060000F070084948804FF4A070888006E04FF4ED
:10061000A070044948804FF4F0708880002000F0FA
:10062000DBFF10BDB401002000B5292001F070F8F7
:1006300000BD000070B505460E46144631462846FA
:1006400001F042F802490889214601F083F870BDA3
:10065000B401002010B5FFF715FE01F0B9FE00F05F
:1006600021F800F0A3FF0D4908802C2008812A20E2
:1006700048812B2088814FF4A07048804FF4F0709F
:1006800088800020887100BF01210548FFF794FF92
:1006900000BF0020FFF7AEFF10BD0000B401002036
:1006A000000C014010B5ED2001F032F8012001F0FE
:1006B00045F8FE2001F042F8EE2001F029F8DE2096
:1006C00001F03CF8212001F039F8F12001F020F888
:1006D000012001F033F8DF2001F01AF8102001F0BA
:1006E0002DF8C42001F014F88F2001F027F8C6205F
:1006F00001F00EF8002001F021F8E22001F01EF8D0
:10070000E22001F01BF8E22001F018F8BF2000F011
:10071000FFFFAA2001F012F8B02000F0F9FF0D2031
:1007200001F00CF8002001F009F80D2001F006F8A6
:10073000002001F003F8112001F000F8002000F083
:10074000FDFF192000F0FAFF002000F0F7FF212044
:1007500000F0F4FF002000F0F1FF2D2000F0EEFF8C
:10076000002000F0EBFF3D2000F0E8FF002000F04B
:10077000E5FF5D2000F0E2FF002000F0DFFF5D20DC
:1007800000F0DCFF002000F0D9FFB12000F0C0FF36
:10079000802000F0D3FF002000F0D0FF8B2000F07D
:1007A000CDFF002000F0CAFF962000F0C7FF002018
:1007B00000F0C4FFB22000F0ABFF002000F0BEFF4D
:1007C000002000F0BBFF022000F0B8FF002000F086
:1007D000B5FF032000F0B2FF002000F0AFFFB32010
:1007E00000F096FF002000F0A9FF002000F0A6FF17
:1007F000002000F0A3FF002000F0A0FF002000F088
:100800009DFF002000F09AFF002000F097FF0020DD
:1008100000F094FF002000F091FF002000F08EFF18
:10082000002000F08BFF002000F088FF002000F087
:1008300085FF002000F082FF002000F07FFF0020F5
:1008400000F07CFF002000F079FF002000F076FF30
:10085000002000F073FF002000F070FF002000F087
:100860006DFF002000F06AFF002000F067FF00200D
:1008700000F064FFB42000F04BFF8B2000F05EFF1F
:10088000002000F05BFF962000F058FF002000F0F1
:1008900055FFA12000F052FF002000F04FFFB520CF
:1008A00000F036FF022000F049FF002000F046FF74
:1008B000032000F043FF002000F040FF042000F080
:1008C0003DFF002000F03AFFB62000F021FF00209D
:1008D00000F034FF002000F031FFB72000F018FFD7
:1008E000002000F02BFF002000F028FF3F2000F048
:1008F00025FF002000F022FF5E2000F01FFF0020F7
:1009000000F01CFF642000F019FF002000F016FF2B
:100910008C2000F013FF002000F010FFAC2000F04E
:100920000DFF002000F00AFFDC2000F007FF002090
:1009300000F004FF702000F001FF002000F0FEFE38
:10094000902000F0FBFE002000F0F8FEEB2000F00D
:10095000F5FE002000F0F2FEDC2000F0EFFE0020AB
:1009600000F0ECFEB82000F0D3FE002000F0E6FE20
:10097000002000F0E3FE002000F0E0FE002000F088
:10098000DDFE002000F0DAFE002000F0D7FE00209F
:1009900000F0D4FE002000F0D1FEBA2000F0B8FE36
:1009A000242000F0CBFE002000F0C8FE002000F064
:1009B000C5FE002000F0C2FEC12000F0A9FE2020EC
:1009C00000F0BCFE002000F0B9FE542000F0B6FE9E
:1009D000002000F0B3FEFF2000F0B0FE002000F089
:1009E000ADFEC22000F094FE0A2000F0A7FE002019
:1009F00000F0A4FE042000F0A1FE002000F09EFE06
:100A0000C32000F085FE3C2000F098FE002000F09E
:100A100095FE3A2000F092FE002000F08FFE392073
:100A200000F08CFE002000F089FE372000F086FEEA
:100A3000002000F083FE3C2000F080FE002000F04B
:100A40007DFE362000F07AFE002000F077FE322096
:100A500000F074FE002000F071FE2F2000F06EFE0A
:100A6000002000F06BFE2C2000F068FE002000F05B
:100A700065FE292000F062FE002000F05FFE2620C7
:100A800000F05CFE002000F059FE242000F056FE2D
:100A9000002000F053FE242000F050FE002000F063
:100AA0004DFE232000F04AFE002000F047FE3C20CF
:100AB00000F044FE002000F041FE362000F03EFE33
:100AC000002000F03BFE322000F038FE002000F055
:100AD00035FE2F2000F032FE002000F02FFE2C20EB
:100AE00000F02CFE002000F029FE292000F026FE58
:100AF000002000F023FE262000F020FE002000F061
:100B00001DFE242000F01AFE002000F017FE242015
:100B100000F014FE002000F011FE232000F00EFE75
:100B2000002000F00BFEC42000F0F2FD622000F077
:100B300005FE002000F002FE052000F0FFFD002071
:100B400000F0FCFD842000F0F9FD002000F0F6FD2F
:100B5000F02000F0F3FD002000F0F0FD182000F080
:100B6000EDFD002000F0EAFDA42000F0E7FD0020EC
:100B700000F0E4FD182000F0E1FD002000F0DEFDB3
:100B8000502000F0DBFD002000F0D8FD0C2000F02C
:100B9000D5FD002000F0D2FD172000F0CFFD002091
:100BA00000F0CCFD952000F0C9FD002000F0C6FD4E
:100BB000F32000F0C3FD002000F0C0FDE62000F0AF
:100BC000BDFD002000F0BAFDC52000F0A1FD3220DF
:100BD00000F0B4FD002000F0B1FD442000F0AEFDB7
:100BE000002000F0ABFD652000F0A8FD002000F023
:100BF000A5FD762000F0A2FD002000F09FFD8820DA
:100C000000F09CFD002000F099FDC62000F080FD62
:100C1000202000F093FD002000F090FD172000F050
:100C20008DFD002000F08AFD012000F087FD0020EE
:100C300000F084FDC72000F06BFD002000F07EFD79
:100C4000002000F07BFD002000F078FD002000F087
:100C500075FDC82000F05CFD002000F06FFD002055
:100C600000F06CFD002000F069FD002000F066FD42
:100C7000C92000F04DFD002000F060FD002000F0D4
:100C80005DFD002000F05AFD002000F057FD00201F
:100C900000F054FD002000F051FD002000F04EFD5A
:100CA000002000F04BFD002000F048FD002000F087
:100CB00045FD002000F042FD002000F03FFD002037
:100CC00000F03CFD002000F039FD002000F036FD72
:100CD000002000F033FDE02000F01AFD162000F0A7
:100CE0002DFD002000F02AFD1C2000F027FD002033
:100CF00000F024FD212000F021FD002000F01EFD69
:100D0000362000F01BFD002000F018FD462000F00A
:100D100015FD002000F012FD522000F00FFD002014
:100D200000F00CFD642000F009FD002000F006FD3D
:100D30007A2000F003FD002000F000FD8B2000F081
:100D4000FDFC002000F0FAFC992000F0F7FC0020E8
:100D500000F0F4FCA82000F0F1FC002000F0EEFC14
:100D6000B92000F0EBFC002000F0E8FCC42000F00B
:100D7000E5FC002000F0E2FCCA2000F0DFFC0020CF
:100D800000F0DCFCD22000F0D9FC002000F0D6FC02
:100D9000D92000F0D3FC002000F0D0FCE02000F0CF
:100DA000CDFC002000F0CAFCF32000F0C7FC0020BE
:100DB00000F0C4FCE12000F0ABFC162000F0BEFC0B
:100DC000002000F0BBFC1C2000F0B8FC002000F06C
:100DD000B5FC222000F0B2FC002000F0AFFC362071
:100DE00000F0ACFC002000F0A9FC452000F0A6FCBF
:100DF000002000F0A3FC522000F0A0FC002000F036
:100E00009DFC642000F09AFC002000F097FC7A2002
:100E100000F094FC002000F091FC8B2000F08EFC90
:100E2000002000F08BFC992000F088FC002000F0EE
:100E300085FCA82000F082FC002000F07FFCB92097
:100E400000F07CFC002000F079FCC42000F076FC6F
:100E5000002000F073FCCA2000F070FC002000F0BD
:100E60006DFCD22000F06AFC002000F067FCD82066
:100E700000F064FC002000F061FCE02000F05EFC6B
:100E8000002000F05BFCF32000F058FC002000F094
:100E900055FCE22000F03CFC052000F04FFC002057
:100EA00000F04CFC0B2000F049FC002000F046FC58
:100EB0001B2000F043FC002000F040FC342000F038
:100EC0003DFC002000F03AFC442000F037FC0020FC
:100ED00000F034FC4F2000F031FC002000F02EFC2C
:100EE000612000F02BFC002000F028FC792000F0AD
:100EF00025FC002000F022FC882000F01FFC0020D0
:100F000000F01CFC972000F019FC002000F016FCFB
:100F1000A62000F013FC002000F010FCB72000F029
:100F20000DFC002000F00AFCC22000F007FC0020AD
:100F300000F004FCC72000F001FC002000F0FEFBE4
:100F4000D12000F0FBFB002000F0F8FBD62000F0E1
:100F5000F5FB002000F0F2FBDD2000F0EFFB0020AD
:100F600000F0ECFBF32000F0E9FB002000F0E6FBD2
:100F7000E32000F0CDFB052000F0E0FB002000F0B6
:100F8000DDFB0A2000F0DAFB002000F0D7FB1C207C
:100F900000F0D4FB002000F0D1FB332000F0CEFBAA
:100FA000002000F0CBFB442000F0C8FB002000F044
:100FB000C5FB502000F0C2FB002000F0BFFB622008
:100FC00000F0BCFB002000F0B9FB782000F0B6FB7D
:100FD000002000F0B3FB882000F0B0FB002000F000
:100FE000ADFB972000F0AAFB002000F0A7FBA62095
:100FF00000F0A4FB002000F0A1FBB72000F09EFB56
:10100000002000F09BFBC22000F098FB002000F0C5
:1010100095FBC72000F092FB002000F08FFBD12051
:1010200000F08CFB002000F089FBD52000F086FB4F
:10103000002000F083FBDD2000F080FB002000F0AA
:101040007DFBF32000F07AFB002000F077FBE4202A
:1010500000F05EFB012000F071FB002000F06EFB51
:10106000012000F06BFB002000F068FB022000F084
:1010700065FB002000F062FB2A2000F05FFB0020EF
:1010800000F05CFB3C2000F059FB002000F056FB18
:101090004B2000F053FB002000F050FB5D2000F0DF
:1010A0004DFB002000F04AFB742000F047FB0020BD
:1010B00000F044FB842000F041FB002000F03EFBE8
:1010C000932000F03BFB002000F038FBA22000F052
:1010D00035FB002000F032FBB32000F02FFB002096
:1010E00000F02CFBBE2000F029FB002000F026FBC6
:1010F000C42000F023FB002000F020FBCD2000F0F6
:101100001DFB002000F01AFBD32000F017FB00208D
:1011100000F014FBDD2000F011FB002000F00EFBBE
:10112000F32000F00BFB002000F008FBE52000F0AE
:10113000EFFA002000F002FB002000F0FFFA002090
:1011400000F0FCFA002000F0F9FA022000F0F6FAB4
:10115000002000F0F3FA292000F0F0FA002000F05F
:10116000EDFA3C2000F0EAFA002000F0E7FA4B200C
:1011700000F0E4FA002000F0E1FA5D2000F0DEFA71
:10118000002000F0DBFA742000F0D8FA002000F014
:10119000D5FA842000F0D2FA002000F0CFFA932094
:1011A00000F0CCFA002000F0C9FAA22000F0C6FA44
:1011B000002000F0C3FAB32000F0C0FA002000F0D5
:1011C000BDFABE2000F0BAFA002000F0B7FAC42041
:1011D00000F0B4FA002000F0B1FACD2000F0AEFA31
:1011E000002000F0ABFAD32000F0A8FA002000F0B5
:1011F000A5FADC2000F0A2FA002000F09FFAF3200C
:1012000000F09CFA002000F099FAE62000F080FA45
:10121000112000F093FA002000F090FA342000F042
:101220008DFA002000F08AFA562000F087FA00209C
:1012300000F084FA762000F081FA002000F07EFAB7
:10124000772000F07BFA002000F078FA662000F0AA
:1012500075FA002000F072FA882000F06FFA002082
:1012600000F06CFA992000F069FA002000F066FAAC
:10127000BB2000F063FA002000F060FA992000F033
:101280005DFA002000F05AFA662000F057FA0020BC
:1012900000F054FA552000F051FA002000F04EFA08
:1012A000552000F04BFA002000F048FA452000F0ED
:1012B00045FA002000F042FA432000F03FFA0020F7
:1012C00000F03CFA442000F039FA002000F036FA31
:1012D000E72000F01DFA322000F030FA002000F084
:1012E0002DFA552000F02AFA002000F027FA762087
:1012F00000F024FA002000F021FA662000F01EFA27
:10130000002000F01BFA672000F018FA002000F01F
:1013100015FA672000F012FA002000F00FFA87207B
:1013200000F00CFA002000F009FA992000F006FA0B
:10133000002000F003FABB2000F000FA002000F0CB
:10134000FDF9992000F0FAF9002000F0F7F9772074
:1013500000F0F4F9002000F0F1F9442000F0EEF97B
:10136000002000F0EBF9562000F0E8F9002000F032
:10137000E5F9232000F0E2F9002000F0DFF9332046
:1013800000F0DCF9002000F0D9F9452000F0D6F992
:10139000002000F0D3F9E82000F0BAF9002000F0B6
:1013A000CDF9002000F0CAF9992000F0C7F900201B
:1013B00000F0C4F9872000F0C1F9002000F0BEF968
:1013C000882000F0BBF9002000F0B8F9772000F089
:1013D000B5F9002000F0B2F9662000F0AFF9002066
:1013E00000F0ACF9882000F0A9F9002000F0A6F97F
:1013F000AA2000F0A3F9002000F0A0F9BB2000F023
:101400009DF9002000F09AF9992000F097F900204A
:1014100000F094F9662000F091F9002000F08EF9B8
:10142000552000F08BF9002000F088F9552000F0DD
:1014300085F9002000F082F9442000F07FF90020B7
:1014400000F07CF9442000F079F9002000F076F9F2
:10145000552000F073F9002000F070F9E92000F049
:1014600057F9AA2000F06AF9002000F067F900207F
:1014700000F064F9002000F061F9002000F048F964
:10148000AA2000F05BF9CF2000F042F9002000F024
:1014900055F9002000F052F9002000F04FF900202B
:1014A00000F04CF9002000F049F9002000F046F966
:1014B000002000F043F9002000F040F9002000F087
:1014C0003DF9002000F03AF9002000F037F9002043
:1014D00000F034F9002000F031F9002000F02EF97E
:1014E000002000F02BF9002000F028F9002000F087
:1014F00025F9F02000F00CF9002000F01FF9502031
:1015000000F01CF9002000F019F9002000F016F995
:10151000002000F013F9F32000F0FAF8002000F0AA
:101520000DF9F92000F0F4F8062000F007F910207A
:1015300000F004F9292000F001F9002000F0FEF885
:101540003A2000F0E5F8552000F0F8F8112000F0FE
:10155000DFF8642000F004FF292000F0D9F83520DE
:1015600000F0D6F8002000F0E9F8512000F0D0F8A3
:10157000FF2000F0E3F8532000F0CAF82C2000F020
:10158000DDF8552000F0C4F8822000F0D7F82C20B8
:1015900000F0BEF810BD000008B5034800880090B8
:1015A000BDF8000008BD00000008006C70B5D42034
:1015B00000F0AEF8FFF7F0FFFFF7EEFF0A2000F0B3
:1015C000CFFEFFF7E9FF0446FFF7E6FF054645EAD1
:1015D000042080B270BD0000F0B506460024362716
:1015E000082E1CD2DFE806F00406090C0F121518AD
:1015F00000BF14E044F0800411E044F040040EE029
:1016000044F0C0040BE044F0200408E044F060041F
:1016100005E044F0A00402E044F0E00400BF00BF95
:101620002146384600F096F804F0200068B12548BD
:10163000408824498988884214DA2248458880886D
:1016400020494880084685800CE01E4840881D4996
:101650008988884206DD1B4845888088194948806A
:10166000084685801749488900F052F8002000F0AC
:1016700065F8002000F062F812494988491EC1F35C
:101680000F2000F05BF80F498978491EC8B200F0BE
:1016900055F80C49888900F03BF8002000F04EF81E
:1016A000002000F04BF807498988491EC1F30F203C
:1016B00000F044F803490979491EC8B200F03EF829
:1016C000F0BD0000B401002010B502460C460F48E2
:1016D0004088904203DD0D488088A04201DC002252
:1016E00000240A49488900F013F8101200F026F887
:1016F000D0B200F023F80549888900F009F82012DB
:1017000000F01CF8E0B200F019F810BDB4010020A0
:1017100001B5BDF800000090BDF800000149088047
:1017200008BD0000FE07006C0248008902490880DD
:1017300070470000B4010020FE07006C01B5BDF841
:1017400000000090BDF800000149088008BD0000BD
:101750000008006C024A1080921C11807047000043
:10176000FE07006C00BFFEE77047000070B5002167
:1017700000230F22C47804B3154C246804F4E064F9
:10178000C4F5E064210AC1F10403CA40447804FAB4
:1017900003F184781440214309010E4C0678A155C9
:1017A000047804F01F050124AC4005786D11AD00EC
:1017B00005F1E025C5F8004109E0047804F01F05B3
:1017C0000124AC40044D0678761145F8264070BDE2
:1017D0000CED00E000E400E080E100E07047000074
:1017E00029B1064A52690243044B5A6104E0034A94
:1017F00052698243014B5A61704700000010024059
:1018000029B1064A92690243044B9A6104E0034AF3
:1018100092698243014B9A617047000000100240B8
:1018200010B500F02FF84FF4803000F0EDF800F024
:1018300049F9012825D10220FEF718FD0120FEF705
:1018400007FD4FF4E0114FF4803000F021F9012042
:1018500000F018F900BF392000F0A4F80028FAD0F1
:10186000022000F023F900BF00F0BAF80828FBD1ED
:10187000002000F0BDF8802000F0ECF8002000F01F
:10188000F5F810BD0F48006840F001000D490860F0
:10189000084640680C4908400A4948600846006804
:1018A0000A490840074908600846006820F480207B
:1018B00008600846406820F4FE0048604FF41F00AE
:1018C00088607047001002400000FFF8FFFFF6FE3E
:1018D00030B500210022002400232D4D6D6805F055
:1018E0000C0121B1042905D0082923D105E0294D97
:1018F000056022E0274D05601FE0254D6D6805F469
:101900007012234D6D6805F48034022505EB924278
:101910001CB9214D554305600BE01D4D6D6805F464
:1019200000351DB11C4D5543056002E0194D55436E
:10193000056002E0174D056000BF00BF144D6D68E3
:1019400005F0F0010909154D6B5C0568DD40456047
:101950000F4D6D6805F4E061090A104D6B5C456838
:10196000DD4085600A4D6D6805F46051C90A0B4D74
:101970006B5C4568DD40C560054D6D6805F4404110
:10198000890B074D6B5CC568B5FBF3F5056130BD90
:101990000010024000127A0000093D000000002003
:1019A0001000002010B501460022002300204A113B
:1019B000012A02D1094C236806E0022A02D1074C11
:1019C000236A01E0054C636A01F01F020124944080
:1019D0001C400CB1012000E0002010BD00100240AE
:1019E0000248406800F00C00704700000010024000
:1019F00001460020034A506820F0F0000843506080
:101A000070470000001002401149096821F480313C
:101A10000F4A11601146096821F480211160B0F568
:101A2000803F03D0B0F5802F0ED106E00849096849
:101A300041F48031064A116007E00549096841F424
:101A4000A021034A116000E000BF00BF7047000002
:101A50000010024001460020034A506820F4E06074
:101A6000084350607047000000100240014600200B
:101A7000034A506820F4605040EAC100506070474B
:101A80000010024001490866704700000000424211
:101A900002460020044B586820F47C1042EA0103FF
:101AA0001843014B58607047001002400146002067
:101AB000034A506820F0030008435060704700005C
:101AC0000010024038B5002000900024002500BF1F
:101AD0003120FFF767FF05460098401C00900098F2
:101AE000B0F5A06F01D0002DF2D03120FFF75AFFE2
:101AF00008B1012400E00024204638BD704770473B
:101B000010B586B0044601218803FFF779FE012154
:101B10000420FFF775FE4FF40070ADF814000320A9
:101B20008DF8160018208DF8170005A91C48FEF73F
:101B3000B8FC4FF48060ADF8140004208DF8170055
:101B400005A91748FEF7ADFC01940020ADF8080088
:101B5000ADF80A00ADF80C00ADF810000C20ADF89F
:101B60000E0001A90F4800F011F925208DF80000A2
:101B700000208DF801008DF8020001208DF803008F
:101B80006846FFF7F3FD012240F22551054800F0B9
:101B9000D8F80121034800F091F806B010BD00000C
:101BA000000801400038014070B504460D4600BFF2
:101BB0008021204600F08EF80028F9D029462046E2
:101BC00000F055F900BF4021204600F083F80028BE
:101BD000F9D070BD1D49098801F0200111B31B49DE
:101BE000091D0988C8B21A49098801F40041C9B918
:101BF0001749098801F4804161B10A2803D0002106
:101C0000134A118020E01249098841F40041104A2A
:101C1000118019E00D2806D10D49098841F4804151
:101C20000B4A118010E00A490988C1F30D01094AE5
:101C3000505407490988491C054A118011460988F2
:101C4000C72901DD002111807047000000380140E4
:101C500020000020EC00002010B540F22551134870
:101C600000F045F808B31248007818B9C8211148A7
:101C7000FEF77DFA0D4800F0F5F8C4B20A2C03D047
:101C80000B480078C62807D1002009490870094987
:101C900009A000F0F3F807E0054801780078401C3F
:101CA000034A10700348445400BF10BD003801407F
:101CB000180000202400002025730A0021B1828929
:101CC00042F40052828104E082894DF6FF731A408B
:101CD0008281704702460020B1F5007F00D100BF2D
:101CE00013880B400BB1012000E00020704770B555
:101CF0000246002400230025002040F66A16B14267
:101D000000D100BFC1F3421501F01F03012606FAFE
:101D100003F3012D02D19689334006E0022D02D152
:101D2000168A334001E0968A33400C12012606FAE7
:101D300004F41688344013B10CB1012000E00020F7
:101D400070BDF0B50346002400260025002040F6B3
:101D50006A17B94200D100BF1846C1F3421401F01E
:101D60001F06012707FA06F5012C01D10C3004E00B
:101D7000022C01D1103000E014301AB107682F4353
:101D8000076002E00768AF430760F0BD2DE9F04748
:101D900086B005460E460024A24600BFA146002795
:101DA000B08900B100BF2F462C8A4CF6FF7004406A
:101DB000F08804432C82AC894EF6F3100440B088BE
:101DC00031890843718908430443AC81AC8A4FF6DA
:101DD000FF400440B0890443AC8201A8FFF778FDBE
:101DE0001F48874202D1DDF810A001E0DDF80CA009
:101DF000A88900F4004040B10AEBCA0000EB0A10C9
:101E000031684900B0FBF1F807E00AEBCA0000EBCB
:101E10000A1031688900B0FBF1F86420B8FBF0F0DB
:101E200004012009642101FB1089A88900F4004005
:101E300040B1322000EBC900B0FBF1F000F0070028
:101E4000044308E0322000EB09106421B0FBF1F0FC
:101E500000F00F0004432C8106B0BDE8F0870000BD
:101E60000038014001468888C0F308007047C1F37C
:101E700008028280704700BFFEE700000FB4054BE8
:101E800010B503A9044A029800F018F810BC5DF8D8
:101E900014FB0000A92300081C00002002E008C871
:101EA000121F08C1002AFAD170477047002001E0D4
:101EB00001C1121F002AFBD1704700002DE9FF4F1E
:101EC0008DB00F460546002606E025280BD0DDE93B
:101ED0000F1290476D1C761C28780028F5D111B0A0
:101EE0003046BDE8F08F0024A246A1460122EC490D
:101EF00000E0044315F8013F203B02FA03F00842DA
:101F0000F7D128782A2810D06FF02F022878A0F176
:101F10003001092914D80AEB8A0102EB410144F08F
:101F2000020400EB010A6D1CF0E701CF5FEA000A32
:101F300003D544F40054CAF1000A44F002046D1CB5
:101F400028782E2817D115F8010F44F004042A2808
:101F50000ED06FF02F022878A0F1300109290AD89D
:101F600009EB890102EB410100EB01096D1CF2E76D
:101F700057F8049B6D1C28786C280FD006DC4C2881
:101F800017D068280DD06A2814D104E0742810D026
:101F90007A280FD10DE044F400140AE044F48014D0
:101FA00001E044F440146978814202D104F58014C0
:101FB0006D1C6D1C2A786E2A1FD00CDC632A31D070
:101FC00004DC002A8BD0582A11D1A3E0642A68D0FF
:101FD000692A0CD165E0732A2ED004DC6F2A73D0F5
:101FE000702A04D19BE0752A6FD0782A6ED01046F3
:101FF000DDE90F129047761C50E1C4F3025002282D
:1020000006D0032809D0042801CF09D0066045E195
:1020100001CFF117C0E9006140E101CF06803DE149
:1020200006703BE117F8040B8DF8000000208DF8D6
:102030000100EB46012003E057F804BB4FF0FF30EE
:1020400061074FF0000102D40DE008F1010188465C
:1020500049450FDA8045F8DB1BF808100029F4D158
:1020600008E008F1010188468142FADB1BF80810FC
:102070000029F6D1DDE90F23AAEB080081462146AD
:1020800000F036F9304400EB080604E0DDE90F12F9
:102090001BF8010B9047B8F10108F7D221464846DA
:1020A000F7E00A21C4F302534FF0000B0891022B12
:1020B00004D001CFC117032B09D00AE0FF1D27F080
:1020C0000707F7E8020108E032E01FE020E000B275
:1020D000C117042B01D140B2C117031E71F10003D7
:1020E00007DA4FF0000CD0EB0C006CEB01012D2354
:1020F00002E0230504D52B238DF82430012303E0CF
:10210000E30701D02023F7E7984658E00A2110E0C2
:1021100010210EE010204FF0000B08900CE0102171
:102120004FF0000B44F004044FF00809089103E05D
:1021300008214FF0000B0891C4F30253022B04D086
:1021400001CF0021032B06D006E0FF1D27F0070773
:10215000F7E8020103E080B2042B00D1C0B24FF0D7
:10216000000823072BD5702A07D0DDF820C08CF09B
:10217000100C5CEA0B0C05D00EE040238DF82430E7
:10218000012308E050EA010306D030238DF8243003
:102190008DF8252002239846DDF820C08CF0080C2D
:1021A0005CEA0B0C0BD150EA010301D1630706D5A1
:1021B00030238DF824304FF00108A9F10109582A85
:1021C00004D038A20B9208AA0A920BE03AA2F9E7CF
:1021D0005B46089AFDF7D6FF0B9B9B5C0A9A521E42
:1021E0000A92137050EA0102F2D10A98ADEB000096
:1021F00000F1200B600702D524F4803401E04FF099
:102200000109D94502DDA9EB0B0000E0002000EB3D
:102210000B0141440890AAEB010AE00306D4DDE972
:102220000F232146504600F063F806444FF00009A2
:1022300008E009A911F80900DDE90F12904709F13A
:102240000109761CC145F4DBE0030CD5DDE90F2361
:102250002146504600F04CF8064404E0DDE90F1238
:1022600030209047761C0899481E08900029F5DC1C
:1022700008E00A980A990078491C0A91DDE90F12D2
:102280009047761CBBF10001ABF1010BF1DC21465C
:102290005046DDE90F2300F019F806446D1C1BE6DB
:1022A000092801003031323334353637383961622C
:1022B00063646566000000003031323334353637F0
:1022C0003839414243444546000000002DE9F041C1
:1022D000044600251E461746880404D405E0394606
:1022E0002020B0476D1C641EF9D52846BDE8F0815A
:1022F0002DE9F041044600251E469046C80301D54D
:10230000302700E02027880404D505E04146384600
:10231000B0476D1C641EF9D52846BDE8F081000069
:102320004FF0E021096941F004014FF0E022116112
:10233000054908601146096941F0010111616FF01A
:1023400070415161704700001400002010B5044630
:102350004FF47A7104FB01F000F002F810BD0000A8
:1023600070B5034600224FF0E02675690D4E3668C1
:1023700003FB06F44FF0E026B16910E04FF0E026D1
:10238000B06988420BD0884202D20E1A324402E071
:102390002E1A0E4432440146A24200D300E0EDE77B
:1023A00000BF70BD1400002070B504460E460A2C14
:1023B00005D10D2529460548FFF7F6FB00BFE1B220
:1023C0000248FFF7F1FB204670BD000000380140D5
:1023D00008B501210820FFF713FA0120ADF800002D
:1023E00010208DF8030003208DF802006946024892
:1023F000FEF757F808BD0000000C0140FFF710FA87
:102400004820FFF78DFF4FF4E130FFF779FB0BA079
:10241000FFF734FDFEF71EF9FEF706F909480188BB
:1024200009A0FFF72BFD1F20FEF7CAF84FF47842F2
:1024300014210846FEF7FEF800BFFEE73132330AEA
:1024400000000000B40100204C43442049442020F7
:102450003D2020253034580A000000007C2400086C
:1024600000000020240000009C1E0008A02400089A
:102470002400002014060000AC1E0008000000002C
:102480000102030401020304060708090204060806
:10249000000000000000000000000000000000003C
:0400000508000145A9
:00000001FF
