:020000040800F2
:10000000C8050020490100083117000899050008BB
:100010002D1700084F0200083F1E000800000000D6
:10002000000000000000000000000000C51A0008E9
:100030005302000800000000A5170008C71A0008B6
:100040005F0100085F0100085F0100085F01000810
:100050005F0100085F0100085F0100085F01000800
:100060005F0100085F0100085F0100085F010008F0
:100070005F0100085F0100085F0100085F010008E0
:100080005F0100085F0100085F0100085F010008D0
:100090005F0100085F0100085F0100085F010008C0
:1000A0005F0100085F0100085F0100085F010008B0
:1000B0005F0100085F0100085F0100085F010008A0
:1000C0005F0100085F0100085F0100085F01000890
:1000D0005F0100089D1B0008211C00085F0100084B
:1000E0005F0100085F0100085F0100085F01000870
:1000F0005F0100085F0100085F0100085F01000860
:100100005F0100085F0100085F0100085F0100084F
:100110005F0100085F0100085F0100085F0100083F
:100120005F0100085F0100085F0100085F0100082F
:10013000DFF810D000F05AF800480047A523000867
:10014000AFF30080C805002005480047FEE7FEE742
:10015000FEE7FEE7FEE7FEE7FEE7FEE7FEE7FEE777
:1001600031010008D2B201E000F8012B491EFBD298
:1001700070470022F6E710B513460A4604461946B2
:10018000FFF7F0FF204610BD2DE9F05F0546002087
:1001900092469B4688460646814640241BE02846F8
:1001A00041464746224600F042F853465A46C01A96
:1001B000914110D311461846224600F029F82D1A15
:1001C00067EB01084F4622460120002100F020F88D
:1001D00017EB00094E41201EA4F10104DFDC484664
:1001E00031462A464346BDE8F09F0000064C074DC5
:1001F00006E0E06840F0010394E8070098471034F7
:10020000AC42F6D3FFF798FF04240008242400082A
:10021000202A04DB203A00FA02F1002070479140C6
:10022000C2F1200320FA03F3194390407047202ABB
:1002300004DB203A21FA02F00021704721FA02F390
:10024000D040C2F12002914008431946704700BFD8
:10025000FEE770470549096821F01001034A116063
:1002600011460968014311607047000000200240F8
:1002700001460020034A106800F03800084310606F
:10028000704700000020024000B597B0012108022D
:1002900001F08AFA01214FF4B07001F095FA4CF2A6
:1002A0000370ADF8580018208DF85B0003208DF81E
:1002B0005A0016A9284800F0E2F84FF68070ADF811
:1002C000580016A9254800F0DAF841F20100ADF80F
:1002D000580016A9224800F0D2F83020ADF8580096
:1002E00016A91D4800F0CBF841F201011C4800F0AE
:1002F00051F93021184800F04DF90020009001908C
:100300000F20029000200390049005900690062094
:100310000790002008900820099010200A900020E3
:100320000B900D900E900F904FF480501090002085
:1003300011904FF48040129000200C901390CDF853
:1003400050D0CDF854D007A800F026F8012106209F
:1003500000F008F817B000BD00140140001801407B
:100360000020014051B18200A2F1C042126842F067
:1003700001038200A2F1C042136009E08200A2F1F1
:10038000C0421268034B1A408300A3F1C0431A60B5
:1003900070470000FEFF0F00D0E901121143C26850
:1003A0001143026911434269114382691143C269D1
:1003B0001143026A1143426A1143826A1143C26ABD
:1003C0001143026B114302689200A2F1C042116016
:1003D000816808290BD101688900A1F1C041096831
:1003E00041F0400201688900A1F1C0410A60416BFF
:1003F0000968426B526841EA0211426B926841EA15
:100400000221426B928941EA0241426B128A41EA1F
:100410000251426B127D41EA0261426B92691143C3
:100420000268521C9200A2F1C0421160C16AB1F58B
:10043000804F1BD1816B0968826B526841EA0211BF
:10044000826B926841EA0221826B128A41EA025170
:10045000826B127D41EA0261826B926911430268EC
:100460009200A2F1C042C2F8041107E06FF070429E
:1004700001688900A1F1C041C1F8042170472DE94C
:10048000F04102460025002600200023002400271A
:1004900091F803C00CF00F0591F803C00CF0100C9C
:1004A000BCF1000F03D091F802C04CEA050591F8A9
:1004B00000C0BCF1000F31D0146800202BE04FF0D9
:1004C000010C0CFA00F3B1F800C00CEA03069E42DE
:1004D00020D183004FF00F0C0CFA03F7BC4305FA50
:1004E00003FC4CEA040491F803C0BCF1280F06D1C8
:1004F0004FF0010C0CFA00FCC2F814C00AE091F8AD
:1005000003C0BCF1480F05D14FF0010C0CFA00FC00
:10051000C2F810C0401C0828D1D31460B1F800C044
:10052000BCF1FF0F34DD546800202EE000F1080C10
:100530004FF0010808FA0CF3B1F800C00CEA03060A
:100540009E4221D183004FF00F0C0CFA03F7BC43FD
:1005500005FA03FC4CEA040491F803C0BCF1280F2F
:1005600005D100F1080C08FA0CF8C2F8148091F8D3
:1005700003C0BCF1480F07D100F1080C4FF001088F
:1005800008FA0CF8C2F81080401C0828CED354603A
:10059000BDE8F0810161704700BFFEE730B5044659
:1005A0000A4840880949898800FB01F5002108466E
:1005B00001F078F801F09CF8002203E0204601F0F9
:1005C000A1F8521CAA42F9D330BD0000B4010020AA
:1005D00010B504460A4884713CB14FF4F0700849E4
:1005E00048804FF4A070888006E04FF4A070044962
:1005F00048804FF4F0708880002000F0DBFF10BDD1
:10060000B401002000B5292001F066F800BD00000B
:1006100070B505460E4614463146284601F042F8AC
:1006200001F066F801490C8070BD00000008006C04
:1006300010B5FFF729FE01F09FFE00F021F800F051
:10064000A3FF0D4908802C2008812A2048812B20F7
:1006500088814FF4A07048804FF4F07088800020AB
:10066000887100BF01210548FFF794FF00BF0020FB
:10067000FFF7AEFF10BD0000B4010020000C0140E8
:1006800010B5ED2001F028F8012001F03BF8FE2024
:1006900001F038F8EE2001F01FF8DE2001F032F80A
:1006A000212001F02FF8F12001F016F8012001F0CF
:1006B00029F8DF2001F010F8102001F023F8C42001
:1006C00001F00AF88F2001F01DF8C62001F004F8AF
:1006D000002001F017F8E22001F014F8E22001F008
:1006E00011F8E22001F00EF8BF2000F0F5FFAA207B
:1006F00001F008F8B02000F0EFFF0D2001F002F843
:10070000002000F0FFFF0D2000F0FCFF002000F0B3
:10071000F9FF112000F0F6FF002000F0F3FF192090
:1007200000F0F0FF002000F0EDFF212000F0EAFFD4
:10073000002000F0E7FF2D2000F0E4FF002000F093
:10074000E1FF3D2000F0DEFF002000F0DBFF5D2038
:1007500000F0D8FF002000F0D5FF5D2000F0D2FFB0
:10076000002000F0CFFFB12000F0B6FF802000F0A5
:10077000C9FF002000F0C6FF8B2000F0C3FF00205F
:1007800000F0C0FF962000F0BDFF002000F0BAFF8F
:10079000B22000F0A1FF002000F0B4FF002000F024
:1007A000B1FF022000F0AEFF002000F0ABFF0320FD
:1007B00000F0A8FF002000F0A5FFB32000F08CFFA0
:1007C000002000F09FFF002000F09CFF002000F0C0
:1007D00099FF002000F096FF002000F093FF00201A
:1007E00000F090FF002000F08DFF002000F08AFF55
:1007F000002000F087FF002000F084FF002000F0C0
:1008000081FF002000F07EFF002000F07BFF002031
:1008100000F078FF002000F075FF002000F072FF6C
:10082000002000F06FFF002000F06CFF002000F0BF
:1008300069FF002000F066FF002000F063FF002049
:1008400000F060FF002000F05DFF002000F05AFF84
:10085000B42000F041FF8B2000F054FF002000F096
:1008600051FF962000F04EFF002000F04BFFA1202A
:1008700000F048FF002000F045FFB52000F02CFFFD
:10088000022000F03FFF002000F03CFF032000F0BA
:1008900039FF002000F036FF042000F033FF002075
:1008A00000F030FFB62000F017FF002000F02AFF14
:1008B000002000F027FFB72000F00EFF002000F01E
:1008C00021FF002000F01EFF3F2000F01BFF002052
:1008D00000F018FF5E2000F015FF002000F012FF6E
:1008E000642000F00FFF002000F00CFF8C2000F0CF
:1008F00009FF002000F006FFAC2000F003FF0020FD
:1009000000F000FFDC2000F0FDFE002000F0FAFE09
:10091000702000F0F7FE002000F0F4FE902000F0C0
:10092000F1FE002000F0EEFEEB2000F0EBFE0020D8
:1009300000F0E8FEDC2000F0E5FE002000F0E2FE22
:10094000B82000F0C9FE002000F0DCFE002000F01E
:10095000D9FE002000F0D6FE002000F0D3FE0020DB
:1009600000F0D0FE002000F0CDFE002000F0CAFE16
:10097000002000F0C7FEBA2000F0AEFE242000F0F8
:10098000C1FE002000F0BEFE002000F0BBFE0020F3
:1009900000F0B8FEC12000F09FFE202000F0B2FE63
:1009A000002000F0AFFE542000F0ACFE002000F06C
:1009B000A9FEFF2000F0A6FE002000F0A3FEC2204A
:1009C00000F08AFE0A2000F09DFE002000F09AFE52
:1009D000042000F097FE002000F094FEC32000F0F9
:1009E0007BFE3C2000F08EFE002000F08BFE3A20C3
:1009F00000F088FE002000F085FE392000F082FE25
:100A0000002000F07FFE372000F07CFE002000F088
:100A100079FE3C2000F076FE002000F073FE3620C8
:100A200000F070FE002000F06DFE322000F06AFE43
:100A3000002000F067FE2F2000F064FE002000F090
:100A400061FE2C2000F05EFE002000F05BFE2920FD
:100A500000F058FE002000F055FE262000F052FE67
:100A6000002000F04FFE242000F04CFE002000F09B
:100A700049FE242000F046FE002000F043FE232023
:100A800000F040FE002000F03DFE3C2000F03AFE69
:100A9000002000F037FE362000F034FE002000F089
:100AA00031FE322000F02EFE002000F02BFE2F2021
:100AB00000F028FE002000F025FE2C2000F022FE91
:100AC000002000F01FFE292000F01CFE002000F096
:100AD00019FE262000F016FE002000F013FE242050
:100AE00000F010FE002000F00DFE242000F00AFEB1
:100AF000002000F007FE232000F004FE002000F09C
:100B000001FEC42000F0E8FD622000F0FBFD0020A3
:100B100000F0F8FD052000F0F5FD002000F0F2FDEA
:100B2000842000F0EFFD002000F0ECFDF02000F04C
:100B3000E9FD002000F0E6FD182000F0E3FD0020B4
:100B400000F0E0FDA42000F0DDFD002000F0DAFD63
:100B5000182000F0D7FD002000F0D4FD502000F058
:100B6000D1FD002000F0CEFD0C2000F0CBFD0020D8
:100B700000F0C8FD172000F0C5FD002000F0C2FD08
:100B8000952000F0BFFD002000F0BCFDF32000F038
:100B9000B9FD002000F0B6FDE62000F0B3FD002016
:100BA00000F0B0FDC52000F097FD322000F0AAFD56
:100BB000002000F0A7FD442000F0A4FD002000F07C
:100BC000A1FD652000F09EFD002000F09BFD762039
:100BD00000F098FD002000F095FD882000F092FDC7
:100BE000002000F08FFDC62000F076FD202000F0F0
:100BF00089FD002000F086FD172000F083FD002015
:100C000000F080FD012000F07DFD002000F07AFD65
:100C1000C72000F061FD002000F074FD002000F00E
:100C200071FD002000F06EFD002000F06BFDC8207B
:100C300000F052FD002000F065FD002000F062FD94
:100C4000002000F05FFD002000F05CFDC92000F0F6
:100C500043FD002000F056FD002000F053FD002071
:100C600000F050FD002000F04DFD002000F04AFD96
:100C7000002000F047FD002000F044FD002000F0BF
:100C800041FD002000F03EFD002000F03BFD002073
:100C900000F038FD002000F035FD002000F032FDAE
:100CA000002000F02FFD002000F02CFD002000F0BF
:100CB00029FDE02000F010FD162000F023FD0020AB
:100CC00000F020FD1C2000F01DFD002000F01AFDAA
:100CD000212000F017FD002000F014FD362000F068
:100CE00011FD002000F00EFD462000F00BFD00205D
:100CF00000F008FD522000F005FD002000F002FD8C
:100D0000642000F0FFFC002000F0FCFC7A2000F0E2
:100D1000F9FC002000F0F6FC8B2000F0F3FC002032
:100D200000F0F0FC992000F0EDFC002000F0EAFC5F
:100D3000A82000F0E7FC002000F0E4FCB92000F05F
:100D4000E1FC002000F0DEFCC42000F0DBFC002011
:100D500000F0D8FCCA2000F0D5FC002000F0D2FC46
:100D6000D22000F0CFFC002000F0CCFCD92000F015
:100D7000C9FC002000F0C6FCE02000F0C3FC00200D
:100D800000F0C0FCF32000F0BDFC002000F0BAFC35
:100D9000E12000F0A1FC162000F0B4FC002000F0DF
:100DA000B1FC1C2000F0AEFC002000F0ABFC2220C7
:100DB00000F0A8FC002000F0A5FC362000F0A2FC0A
:100DC000002000F09FFC452000F09CFC002000F07B
:100DD00099FC522000F096FC002000F093FC642067
:100DE00000F090FC002000F08DFC7A2000F08AFCDE
:100DF000002000F087FC8B2000F084FC002000F035
:100E000081FC992000F07EFC002000F07BFCA820F3
:100E100000F078FC002000F075FCB92000F072FCB6
:100E2000002000F06FFCC42000F06CFC002000F0FB
:100E300069FCCA2000F066FC002000F063FCD220B0
:100E400000F060FC002000F05DFCD82000F05AFCAF
:100E5000002000F057FCE02000F054FC002000F0DF
:100E600051FCF32000F04EFC002000F04BFCE2208F
:100E700000F032FC052000F045FC002000F042FCB0
:100E80000B2000F03FFC002000F03CFC1B2000F099
:100E900039FC002000F036FC342000F033FC002048
:100EA00000F030FC442000F02DFC002000F02AFC73
:100EB0004F2000F027FC002000F024FC612000F00F
:100EC00021FC002000F01EFC792000F01BFC00201B
:100ED00000F018FC882000F015FC002000F012FC47
:100EE000972000F00FFC002000F00CFCA62000F082
:100EF00009FC002000F006FCB72000F003FC0020F5
:100F000000F000FCC22000F0FDFB002000F0FAFB26
:100F1000C72000F0F7FB002000F0F4FBD12000F028
:100F2000F1FB002000F0EEFBD62000F0EBFB0020F0
:100F300000F0E8FBDD2000F0E5FB002000F0E2FB24
:100F4000F32000F0DFFB002000F0DCFBE32000F0EA
:100F5000C3FB052000F0D6FB002000F0D3FB0A20E5
:100F600000F0D0FB002000F0CDFB1C2000F0CAFBFD
:100F7000002000F0C7FB332000F0C4FB002000F08D
:100F8000C1FB442000F0BEFB002000F0BBFB502062
:100F900000F0B8FB002000F0B5FB622000F0B2FBCF
:100FA000002000F0AFFB782000F0ACFB002000F048
:100FB000A9FB882000F0A6FB002000F0A3FB9720EF
:100FC00000F0A0FB002000F09DFBA62000F09AFBA3
:100FD000002000F097FBB72000F094FB002000F009
:100FE00091FBC22000F08EFB002000F08BFBC7209D
:100FF00000F088FB002000F085FBD12000F082FB90
:10100000002000F07FFBD52000F07CFB002000F0EA
:1010100079FBDD2000F076FB002000F073FBF3206D
:1010200000F070FB002000F06DFBE42000F054FBAA
:10103000012000F067FB002000F064FB012000F0BD
:1010400061FB002000F05EFB022000F05BFB002053
:1010500000F058FB2A2000F055FB002000F052FB66
:101060003C2000F04FFB002000F04CFB4B2000F038
:1010700049FB002000F046FB5D2000F043FB002010
:1010800000F040FB742000F03DFB002000F03AFB34
:10109000842000F037FB002000F034FB932000F0A8
:1010A00031FB002000F02EFBA22000F02BFB0020E3
:1010B00000F028FBB32000F025FB002000F022FB0D
:1010C000BE2000F01FFB002000F01CFBC42000F03D
:1010D00019FB002000F016FBCD2000F013FB0020D0
:1010E00000F010FBD32000F00DFB002000F00AFB05
:1010F000DD2000F007FB002000F004FBF32000F0EF
:1011000001FB002000F0FEFAE52000F0E5FA0020E7
:1011100000F0F8FA002000F0F5FA002000F0F2FAF2
:10112000002000F0EFFA022000F0ECFA002000F0BE
:10113000E9FA292000F0E6FA002000F0E3FA3C206A
:1011400000F0E0FA002000F0DDFA4B2000F0DAFABF
:10115000002000F0D7FA5D2000F0D4FA002000F063
:10116000D1FA742000F0CEFA002000F0CBFA8420EF
:1011700000F0C8FA002000F0C5FA932000F0C2FA8F
:10118000002000F0BFFAA22000F0BCFA002000F01E
:10119000B9FAB32000F0B6FA002000F0B3FABE208E
:1011A00000F0B0FA002000F0ADFAC42000F0AAFA76
:1011B000002000F0A7FACD2000F0A4FA002000F0F3
:1011C000A1FAD32000F09EFA002000F09BFADC2068
:1011D00000F098FA002000F095FAF32000F092FA5F
:1011E000002000F08FFAE62000F076FA112000F0DF
:1011F00089FA002000F086FA342000F083FA0020FB
:1012000000F080FA562000F07DFA002000F07AFA13
:10121000762000F077FA002000F074FA772000F0D2
:1012200071FA002000F06EFA662000F06BFA0020E0
:1012300000F068FA882000F065FA002000F062FAF9
:10124000992000F05FFA002000F05CFABB2000F06B
:1012500059FA002000F056FA992000F053FA0020C5
:1012600000F050FA662000F04DFA002000F04AFA33
:10127000552000F047FA002000F044FA552000F015
:1012800041FA002000F03EFA452000F03BFA002031
:1012900000F038FA432000F035FA002000F032FA6E
:1012A000442000F02FFA002000F02CFAE72000F094
:1012B00013FA322000F026FA002000F023FA55201D
:1012C00000F020FA002000F01DFA762000F01AFA53
:1012D000002000F017FA662000F014FA002000F059
:1012E00011FA672000F00EFA002000F00BFA6720D8
:1012F00000F008FA002000F005FA872000F002FA5A
:10130000002000F0FFF9992000F0FCF9002000F027
:10131000F9F9BB2000F0F6F9002000F0F3F999206C
:1013200000F0F0F9002000F0EDF9772000F0EAF984
:10133000002000F0E7F9442000F0E4F9002000F07C
:10134000E1F9562000F0DEF9002000F0DBF923205F
:1013500000F0D8F9002000F0D5F9332000F0D2F9E0
:10136000002000F0CFF9452000F0CCF9002000F07B
:10137000C9F9E82000F0B0F9002000F0C3F900201E
:1013800000F0C0F9992000F0BDF9002000F0BAF992
:10139000872000F0B7F9002000F0B4F9882000F0B1
:1013A000B1F9002000F0AEF9772000F0ABF9002091
:1013B00000F0A8F9662000F0A5F9002000F0A2F9DD
:1013C000882000F09FF9002000F09CF9AA2000F08E
:1013D00099F9002000F096F9BB2000F093F9002065
:1013E00000F090F9992000F08DF9002000F08AF9C2
:1013F000662000F087F9002000F084F9552000F005
:1014000081F9002000F07EF9552000F07BF90020E2
:1014100000F078F9442000F075F9002000F072F92E
:10142000442000F06FF9002000F06CF9552000F026
:1014300069F9002000F066F9E92000F04DF9AA20D2
:1014400000F060F9002000F05DF9002000F05AF98A
:10145000002000F057F9002000F03EF9AA2000F02B
:1014600051F9CF2000F038F9002000F04BF90020AE
:1014700000F048F9002000F045F9002000F042F9A2
:10148000002000F03FF9002000F03CF9002000F0BF
:1014900039F9002000F036F9002000F033F900207F
:1014A00000F030F9002000F02DF9002000F02AF9BA
:1014B000002000F027F9002000F024F9002000F0BF
:1014C00021F9002000F01EF9002000F01BF9F020A7
:1014D00000F002F9002000F015F9502000F012F998
:1014E000002000F00FF9002000F00CF9002000F0BF
:1014F00009F9F32000F0F0F8002000F003F9F920DA
:1015000000F0EAF8062000F0FDF8102000F0FAF8EC
:10151000292000F0F7F8002000F0F4F83A2000F05D
:10152000DBF8552000F0EEF8112000F0D5F864202B
:1015300000F0EAFE292000F0CFF8352000F0CCF8CA
:10154000002000F0DFF8512000F0C6F8FF2000F086
:10155000D9F8532000F0C0F82C2000F0D3F8552023
:1015600000F0BAF8822000F0CDF82C2000F0B4F89A
:1015700010BD000008B5034800880090BDF80000C9
:1015800008BD00000008006C70B5D42000F0A4F87D
:10159000FFF7F0FFFFF7EEFF0A2000F0B5FEFFF7C0
:1015A000E9FF0446FFF7E6FF054645EA042080B25E
:1015B00070BD0000F0B5064600243627082E1CD268
:1015C000DFE806F00406090C0F12151800BF14E03E
:1015D00044F0800411E044F040040EE044F0C00404
:1015E0000BE044F0200408E044F0600405E044F01F
:1015F000A00402E044F0E00400BF00BF21463846EA
:1016000000F08CF804F0200068B125484088244997
:101610008988884214DA2248458880882049488091
:10162000084685800CE01E4840881D49898888420C
:1016300006DD1B4845888088194948800846858012
:101640001749488900F048F8002000F05BF80020B6
:1016500000F058F812494988491EC1F30F2000F0E4
:1016600051F80F498978491EC8B200F04BF80C496F
:10167000888900F031F8002000F044F8002000F0E4
:1016800041F807498988491EC1F30F2000F03AF854
:1016900003490979491EC8B200F034F8F0BD0000D2
:1016A000B401002010B502460C460A49488900F0F2
:1016B00013F8101200F026F8D0B200F023F8054914
:1016C000888900F009F8201200F01CF8E0B200F060
:1016D00019F810BDB401002001B5BDF8000000905C
:1016E000BDF800000149088008BD0000FE07006C3D
:1016F000024800890249088070470000B4010020B8
:10170000FE07006C01B5BDF800000090BDF80000B8
:101710000149088008BD00000008006C024A1080E2
:10172000921C118070470000FE07006C00BFFEE7AE
:101730007047000070B5002100230F22C47804B365
:10174000154C246804F4E064C4F5E064210AC1F196
:101750000403CA40447804FA03F184781440214316
:1017600009010E4C0678A155047804F01F050124E8
:10177000AC4005786D11AD0005F1E025C5F80041DC
:1017800009E0047804F01F050124AC40044D0678FC
:10179000761145F8264070BD0CED00E000E400E055
:1017A00080E100E07047000029B1064A5269024317
:1017B000044B5A6104E0034A52698243014B5A6167
:1017C000704700000010024029B1064A92690243A6
:1017D000044B9A6104E0034A92698243014B9A6187
:1017E000704700000010024010B500F02FF84FF4D1
:1017F000803000F0EDF800F049F9012825D10220F1
:10180000FEF736FD0120FEF725FD4FF4E0114FF401
:10181000803000F021F9012000F018F900BF3920D4
:1018200000F0A4F80028FAD0022000F023F900BF4D
:1018300000F0BAF80828FBD1002000F0BDF88020A5
:1018400000F0ECF8002000F0F5F810BD0F4800683B
:1018500040F001000D490860084640680C49084006
:101860000A494860084600680A4908400749086074
:101870000846006820F4802008600846406820F48C
:10188000FE0048604FF41F0088607047001002405F
:101890000000FFF8FFFFF6FE30B500210022002413
:1018A00000232D4D6D6805F00C0121B1042905D0F0
:1018B000082923D105E0294D056022E0274D056068
:1018C0001FE0254D6D6805F47012234D6D6805F419
:1018D0008034022505EB92421CB9214D5543056029
:1018E0000BE01D4D6D6805F400351DB11C4D5543D1
:1018F000056002E0194D5543056002E0174D056093
:1019000000BF00BF144D6D6805F0F0010909154DC9
:101910006B5C0568DD4045600F4D6D6805F4E06166
:10192000090A104D6B5C4568DD4085600A4D6D68A5
:1019300005F46051C90A0B4D6B5C4568DD40C5601C
:10194000054D6D6805F44041890B074D6B5CC5681A
:10195000B5FBF3F5056130BD0010024000127A00BE
:1019600000093D00000000201000002010B50146D5
:101970000022002300204A11012A02D1094C2368C9
:1019800006E0022A02D1074C236A01E0054C636A93
:1019900001F01F02012494401C400CB1012000E022
:1019A000002010BD001002400248406800F00C000A
:1019B000704700000010024001460020034A5068B2
:1019C00020F0F00008435060704700000010024013
:1019D0001149096821F480310F4A116011460968E4
:1019E00021F480211160B0F5803F03D0B0F5802F45
:1019F0000ED106E00849096841F48031064A1160B9
:101A000007E00549096841F4A021034A116000E09C
:101A100000BF00BF704700000010024001460020D8
:101A2000034A506820F4E0600843506070470000AB
:101A30000010024001460020034A506820F4605024
:101A400040EAC1005060704700100240014908663A
:101A5000704700000000424202460020044B5868D4
:101A600020F47C1042EA01031843014B5860704790
:101A70000010024001460020034A506820F0030095
:101A800008435060704700000010024038B5002045
:101A900000900024002500BF3120FFF767FF0546B6
:101AA0000098401C00900098B0F5A06F01D0002D68
:101AB000F2D03120FFF75AFF08B1012400E00024E2
:101AC000204638BD7047704710B586B004460121E6
:101AD0008803FFF779FE01210420FFF775FE4FF41C
:101AE0000070ADF8140003208DF8160018208DF852
:101AF000170005A91C48FEF7C2FC4FF48060ADF842
:101B0000140004208DF8170005A91748FEF7B7FC4C
:101B100001940020ADF80800ADF80A00ADF80C0003
:101B2000ADF810000C20ADF80E0001A90F4800F030
:101B300011F925208DF8000000208DF801008DF8A6
:101B4000020001208DF803006846FFF7F3FD012233
:101B500040F22551054800F0D8F80121034800F073
:101B600091F806B010BD00000008014000380140A7
:101B700070B504460D4600BF8021204600F08EF867
:101B80000028F9D02946204600F055F900BF402131
:101B9000204600F083F80028F9D070BD1D4909885F
:101BA00001F0200111B31B49091D0988C8B21A4967
:101BB000098801F40041C9B91749098801F4804135
:101BC00061B10A2803D00021134A118020E0124994
:101BD000098841F40041104A118019E00D2806D10E
:101BE0000D49098841F480410B4A118010E00A49EF
:101BF0000988C1F30D01094A505407490988491C55
:101C0000054A118011460988C72901DD002111808C
:101C1000704700000038014020000020EC00002048
:101C200010B540F22551134800F045F808B31248AA
:101C3000007818B9C8211148FEF79BFA0D4800F04A
:101C4000F5F8C4B20A2C03D00B480078C62807D197
:101C5000002009490870094909A000F0F3F807E0DD
:101C6000054801780078401C034A1070034844542A
:101C700000BF10BD003801401800002024000020E3
:101C800025730A0021B1828942F40052828104E066
:101C900082894DF6FF731A40828170470246002008
:101CA000B1F5007F00D100BF13880B400BB10120BC
:101CB00000E00020704770B5024600240023002594
:101CC000002040F66A16B14200D100BFC1F34215B0
:101CD00001F01F03012606FA03F3012D02D19689B4
:101CE000334006E0022D02D1168A334001E0968A85
:101CF00033400C12012606FA04F41688344013B15E
:101D00000CB1012000E0002070BDF0B503460024B6
:101D100000260025002040F66A17B94200D100BF16
:101D20001846C1F3421401F01F06012707FA06F511
:101D3000012C01D10C3004E0022C01D1103000E064
:101D400014301AB107682F43076002E00768AF43F9
:101D50000760F0BD2DE9F04786B005460E46002429
:101D6000A24600BFA1460027B08900B100BF2F46A0
:101D70002C8A4CF6FF700440F08804432C82AC8916
:101D80004EF6F3100440B088318908437189084346
:101D90000443AC81AC8A4FF6FF400440B089044351
:101DA000AC8201A8FFF778FD1F48874202D1DDF819
:101DB00010A001E0DDF80CA0A88900F4004040B1BB
:101DC0000AEBCA0000EB0A1031684900B0FBF1F8D9
:101DD00007E00AEBCA0000EB0A1031688900B0FB8B
:101DE000F1F86420B8FBF0F004012009642101FB44
:101DF0001089A88900F4004040B1322000EBC900EE
:101E0000B0FBF1F000F00700044308E0322000EBE3
:101E100009106421B0FBF1F000F00F0004432C81A5
:101E200006B0BDE8F0870000003801400146888810
:101E3000C0F308007047C1F308028280704700BFFA
:101E4000FEE700000FB4054B10B503A9044A029841
:101E500000F018F810BC5DF814FB000051230008D6
:101E60001C00002002E008C8121F08C1002AFAD195
:101E700070477047002001E001C1121F002AFBD10A
:101E8000704700002DE9FF4F8DB00F460546002634
:101E900006E025280BD0DDE90F1290476D1C761C5B
:101EA00028780028F5D111B03046BDE8F08F002425
:101EB000A246A1460122E94900E0044315F8013F8A
:101EC000203B02FA03F00842F7D128782A2810D0E4
:101ED0006FF02F022878A0F13001092914D80AEBFD
:101EE0008A0102EB410144F0020400EB010A6D1C7F
:101EF000F0E701CF5FEA000A03D544F40054CAF1C9
:101F0000000A44F002046D1C28782E2817D115F819
:101F1000010F44F004042A280ED06FF02F02287815
:101F2000A0F1300109290AD809EB890102EB41012E
:101F300000EB01096D1CF2E757F8049B6D1C287833
:101F40006C280FD006DC4C2817D068280DD06A28E2
:101F500014D104E0742810D07A280FD10DE044F495
:101F600000140AE044F4801401E044F44014697859
:101F7000814202D104F580146D1C6D1C28786E28F6
:101F80001ED00CDC632830D004DC00288BD058280D
:101F900011D19FE0642867D069280CD164E07328D0
:101FA0002DD004DC6F2872D0702804D194E07528FD
:101FB0006ED078286DD0DDE90F129047761C4BE18A
:101FC000C4F30250022806D0032809D0042801CF08
:101FD00009D0066040E101CFF117C0E900613BE1A3
:101FE00001CF068038E1067036E117F8040B8DF852
:101FF000000000208DF80100EB46012003E057F8B7
:1020000004BB4FF0FF3061074FF0000102D40DE038
:1020100008F10101884649450FDA8045F8DB1BF8D5
:1020200008100029F4D108E008F101018846814236
:10203000FADB1BF808100029F6D1DDE90F23AAEB23
:1020400008008146214600F031F9304400EB0806D3
:1020500004E0DDE90F121BF8010B9047B8F101080D
:10206000F7D221464846F2E00A21C4F302524FF06B
:10207000000B0891022A04D001CFC117032A09D00E
:102080000AE0FF1D27F00707F7E8020108E02CE04F
:102090001EE01FE000B2C117042A01D140B2C117EF
:1020A000021E71F1000206DA0023D0EB030063EB9D
:1020B00001012D2202E0220504D52B228DF82420D7
:1020C000012203E0E20701D02022F7E7904653E027
:1020D0000A210BE0102109E010214FF0000B44F021
:1020E00004044FF00809089103E008214FF0000BA9
:1020F0000891C4F30252022A04D001CF0021032A1E
:1021000006D006E0FF1D27F00707F7E8020103E00D
:1021100080B2042A00D1C0B24FF0000822072BD5AC
:102120002A78702A07D0DDF820C08CF0100C5CEA09
:102130000B0C05D00EE040228DF82420012208E08F
:1021400050EA010306D030238DF824308DF8252085
:1021500002229046089B83F0080353EA0B030BD13D
:1021600050EA010201D1620706D530228DF8242001
:102170004FF00108A9F101092A78582A04D038A2A1
:102180000B9208AA0A920BE03AA2F9E75B46089A7A
:10219000FDF7FAFF0B9B9B5C0A9A521E0A92137082
:1021A00050EA0102F2D10A98ADEB000000F1200BD9
:1021B000600702D524F4803401E04FF00109D945CD
:1021C00002DDA9EB0B0000E0002000EB0B01414415
:1021D0000890AAEB010AE00306D4DDE90F232146AB
:1021E000504600F063F806444FF0000908E009A9E2
:1021F00011F80900DDE90F12904709F10109761C79
:10220000C145F4DBE0030CD5DDE90F232146504640
:1022100000F04CF8064404E0DDE90F12302090474E
:10222000761C0899481E08900029F5DC08E00A98F9
:102230000A990078491C0A91DDE90F129047761C33
:10224000BBF10001ABF1010BF1DC21465046DDE9A9
:102250000F2300F019F806446D1C21E6092801003F
:10226000303132333435363738396162636465660C
:1022700000000000303132333435363738394142CE
:1022800043444546000000002DE9F0410446002586
:102290001E461746880404D405E039462020B0477E
:1022A0006D1C641EF9D52846BDE8F0812DE9F0418A
:1022B000044600251E469046C80301D5302700E09D
:1022C0002027880404D505E041463846B0476D1CF8
:1022D000641EF9D52846BDE8F08100004FF0E021EA
:1022E000096941F004014FF0E022116105490860DD
:1022F0001146096941F0010111616FF070415161AE
:10230000704700001400002070B5034600224FF013
:10231000E02675690D4E366803FB06F44FF0E026A3
:10232000B16910E04FF0E026B06988420BD08842D6
:1023300002D20E1A324402E02E1A0E4432440146F2
:10234000A24200D300E0EDE700BF70BD1400002002
:1023500070B504460E460A2C05D10D2529460548C0
:10236000FFF706FC00BFE1B20248FFF701FC204680
:1023700070BD00000038014008B501210820FFF7BA
:1023800023FA0120ADF8000010208DF8030003208F
:102390008DF8020069460248FEF771F808BD00009A
:1023A000000C0140FFF720FA4820FFF797FF4FF499
:1023B000E130FFF789FB0BA0FFF744FDFEF738F98A
:1023C000FEF720F90948018809A0FFF73BFD1F200F
:1023D000FEF7E4F84FF4784214210846FEF718F9A6
:1023E00000BFFEE73132330A00000000B4010020D4
:1023F0004C434420494420203D2020253034580AB5
:102400000000000024240008000000202400000038
:10241000641E00084824000824000020A4050000D1
:10242000741E0008000000000102030401020304FE
:10243000060708090204060800000000000000006A
:08244000000000000000000094
:0400000508000149A5
:00000001FF
